{
  "contractName": "UniswapV2Router02",
  "abi": [
    {
      "inputs": [
        {
          "internalType": "address",
          "name": "_factory",
          "type": "address"
        },
        {
          "internalType": "address",
          "name": "_WETH",
          "type": "address"
        }
      ],
      "stateMutability": "nonpayable",
      "type": "constructor"
    },
    {
      "anonymous": false,
      "inputs": [
        {
          "indexed": false,
          "internalType": "address",
          "name": "tokenA",
          "type": "address"
        },
        {
          "indexed": false,
          "internalType": "address",
          "name": "tokenB",
          "type": "address"
        },
        {
          "indexed": false,
          "internalType": "uint256",
          "name": "amountA",
          "type": "uint256"
        },
        {
          "indexed": false,
          "internalType": "uint256",
          "name": "amountB",
          "type": "uint256"
        },
        {
          "indexed": false,
          "internalType": "address",
          "name": "pair",
          "type": "address"
        }
      ],
      "name": "AddLiquidity",
      "type": "event"
    },
    {
      "anonymous": false,
      "inputs": [
        {
          "indexed": false,
          "internalType": "address",
          "name": "tokenA",
          "type": "address"
        },
        {
          "indexed": false,
          "internalType": "address",
          "name": "tokenB",
          "type": "address"
        },
        {
          "indexed": false,
          "internalType": "uint256",
          "name": "amountA",
          "type": "uint256"
        },
        {
          "indexed": false,
          "internalType": "uint256",
          "name": "amountB",
          "type": "uint256"
        },
        {
          "indexed": false,
          "internalType": "address",
          "name": "pair",
          "type": "address"
        }
      ],
      "name": "RemoveLiquidity",
      "type": "event"
    },
    {
      "inputs": [],
      "name": "WETH",
      "outputs": [
        {
          "internalType": "address",
          "name": "",
          "type": "address"
        }
      ],
      "stateMutability": "view",
      "type": "function",
      "constant": true
    },
    {
      "inputs": [],
      "name": "factory",
      "outputs": [
        {
          "internalType": "address",
          "name": "",
          "type": "address"
        }
      ],
      "stateMutability": "view",
      "type": "function",
      "constant": true
    },
    {
      "stateMutability": "payable",
      "type": "receive",
      "payable": true
    },
    {
      "inputs": [
        {
          "internalType": "address",
          "name": "token0",
          "type": "address"
        },
        {
          "internalType": "address",
          "name": "token1",
          "type": "address"
        },
        {
          "internalType": "uint256",
          "name": "blockNumber",
          "type": "uint256"
        },
        {
          "internalType": "uint256[]",
          "name": "prices",
          "type": "uint256[]"
        }
      ],
      "name": "setMarketPricesAtPool",
      "outputs": [],
      "stateMutability": "nonpayable",
      "type": "function"
    },
    {
      "inputs": [
        {
          "internalType": "address",
          "name": "tokenA",
          "type": "address"
        },
        {
          "internalType": "address",
          "name": "tokenB",
          "type": "address"
        },
        {
          "internalType": "uint256",
          "name": "amountADesired",
          "type": "uint256"
        },
        {
          "internalType": "uint256",
          "name": "amountBDesired",
          "type": "uint256"
        },
        {
          "internalType": "uint256",
          "name": "amountAMin",
          "type": "uint256"
        },
        {
          "internalType": "uint256",
          "name": "amountBMin",
          "type": "uint256"
        },
        {
          "internalType": "address",
          "name": "to",
          "type": "address"
        },
        {
          "internalType": "uint256",
          "name": "deadline",
          "type": "uint256"
        }
      ],
      "name": "addLiquidity",
      "outputs": [
        {
          "internalType": "uint256",
          "name": "amountA",
          "type": "uint256"
        },
        {
          "internalType": "uint256",
          "name": "amountB",
          "type": "uint256"
        },
        {
          "internalType": "uint256",
          "name": "liquidity",
          "type": "uint256"
        }
      ],
      "stateMutability": "nonpayable",
      "type": "function"
    },
    {
      "inputs": [
        {
          "internalType": "address",
          "name": "token",
          "type": "address"
        },
        {
          "internalType": "uint256",
          "name": "amountTokenDesired",
          "type": "uint256"
        },
        {
          "internalType": "uint256",
          "name": "amountTokenMin",
          "type": "uint256"
        },
        {
          "internalType": "uint256",
          "name": "amountETHMin",
          "type": "uint256"
        },
        {
          "internalType": "address",
          "name": "to",
          "type": "address"
        },
        {
          "internalType": "uint256",
          "name": "deadline",
          "type": "uint256"
        }
      ],
      "name": "addLiquidityETH",
      "outputs": [
        {
          "internalType": "uint256",
          "name": "amountToken",
          "type": "uint256"
        },
        {
          "internalType": "uint256",
          "name": "amountETH",
          "type": "uint256"
        },
        {
          "internalType": "uint256",
          "name": "liquidity",
          "type": "uint256"
        }
      ],
      "stateMutability": "payable",
      "type": "function",
      "payable": true
    },
    {
      "inputs": [
        {
          "internalType": "address",
          "name": "tokenA",
          "type": "address"
        },
        {
          "internalType": "address",
          "name": "tokenB",
          "type": "address"
        },
        {
          "internalType": "uint256",
          "name": "liquidity",
          "type": "uint256"
        },
        {
          "internalType": "uint256",
          "name": "amountAMin",
          "type": "uint256"
        },
        {
          "internalType": "uint256",
          "name": "amountBMin",
          "type": "uint256"
        },
        {
          "internalType": "address",
          "name": "to",
          "type": "address"
        },
        {
          "internalType": "uint256",
          "name": "deadline",
          "type": "uint256"
        }
      ],
      "name": "removeLiquidity",
      "outputs": [
        {
          "internalType": "uint256",
          "name": "amountA",
          "type": "uint256"
        },
        {
          "internalType": "uint256",
          "name": "amountB",
          "type": "uint256"
        }
      ],
      "stateMutability": "nonpayable",
      "type": "function"
    },
    {
      "inputs": [
        {
          "internalType": "address",
          "name": "token",
          "type": "address"
        },
        {
          "internalType": "uint256",
          "name": "liquidity",
          "type": "uint256"
        },
        {
          "internalType": "uint256",
          "name": "amountTokenMin",
          "type": "uint256"
        },
        {
          "internalType": "uint256",
          "name": "amountETHMin",
          "type": "uint256"
        },
        {
          "internalType": "address",
          "name": "to",
          "type": "address"
        },
        {
          "internalType": "uint256",
          "name": "deadline",
          "type": "uint256"
        }
      ],
      "name": "removeLiquidityETH",
      "outputs": [
        {
          "internalType": "uint256",
          "name": "amountToken",
          "type": "uint256"
        },
        {
          "internalType": "uint256",
          "name": "amountETH",
          "type": "uint256"
        }
      ],
      "stateMutability": "nonpayable",
      "type": "function"
    },
    {
      "inputs": [
        {
          "internalType": "address",
          "name": "tokenA",
          "type": "address"
        },
        {
          "internalType": "address",
          "name": "tokenB",
          "type": "address"
        },
        {
          "internalType": "uint256",
          "name": "liquidity",
          "type": "uint256"
        },
        {
          "internalType": "uint256",
          "name": "amountAMin",
          "type": "uint256"
        },
        {
          "internalType": "uint256",
          "name": "amountBMin",
          "type": "uint256"
        },
        {
          "internalType": "address",
          "name": "to",
          "type": "address"
        },
        {
          "internalType": "uint256",
          "name": "deadline",
          "type": "uint256"
        },
        {
          "internalType": "bool",
          "name": "approveMax",
          "type": "bool"
        },
        {
          "internalType": "uint8",
          "name": "v",
          "type": "uint8"
        },
        {
          "internalType": "bytes32",
          "name": "r",
          "type": "bytes32"
        },
        {
          "internalType": "bytes32",
          "name": "s",
          "type": "bytes32"
        }
      ],
      "name": "removeLiquidityWithPermit",
      "outputs": [
        {
          "internalType": "uint256",
          "name": "amountA",
          "type": "uint256"
        },
        {
          "internalType": "uint256",
          "name": "amountB",
          "type": "uint256"
        }
      ],
      "stateMutability": "nonpayable",
      "type": "function"
    },
    {
      "inputs": [
        {
          "internalType": "address",
          "name": "token",
          "type": "address"
        },
        {
          "internalType": "uint256",
          "name": "liquidity",
          "type": "uint256"
        },
        {
          "internalType": "uint256",
          "name": "amountTokenMin",
          "type": "uint256"
        },
        {
          "internalType": "uint256",
          "name": "amountETHMin",
          "type": "uint256"
        },
        {
          "internalType": "address",
          "name": "to",
          "type": "address"
        },
        {
          "internalType": "uint256",
          "name": "deadline",
          "type": "uint256"
        },
        {
          "internalType": "bool",
          "name": "approveMax",
          "type": "bool"
        },
        {
          "internalType": "uint8",
          "name": "v",
          "type": "uint8"
        },
        {
          "internalType": "bytes32",
          "name": "r",
          "type": "bytes32"
        },
        {
          "internalType": "bytes32",
          "name": "s",
          "type": "bytes32"
        }
      ],
      "name": "removeLiquidityETHWithPermit",
      "outputs": [
        {
          "internalType": "uint256",
          "name": "amountToken",
          "type": "uint256"
        },
        {
          "internalType": "uint256",
          "name": "amountETH",
          "type": "uint256"
        }
      ],
      "stateMutability": "nonpayable",
      "type": "function"
    },
    {
      "inputs": [
        {
          "internalType": "address",
          "name": "token",
          "type": "address"
        },
        {
          "internalType": "uint256",
          "name": "liquidity",
          "type": "uint256"
        },
        {
          "internalType": "uint256",
          "name": "amountTokenMin",
          "type": "uint256"
        },
        {
          "internalType": "uint256",
          "name": "amountETHMin",
          "type": "uint256"
        },
        {
          "internalType": "address",
          "name": "to",
          "type": "address"
        },
        {
          "internalType": "uint256",
          "name": "deadline",
          "type": "uint256"
        }
      ],
      "name": "removeLiquidityETHSupportingFeeOnTransferTokens",
      "outputs": [
        {
          "internalType": "uint256",
          "name": "amountETH",
          "type": "uint256"
        }
      ],
      "stateMutability": "nonpayable",
      "type": "function"
    },
    {
      "inputs": [
        {
          "internalType": "address",
          "name": "token",
          "type": "address"
        },
        {
          "internalType": "uint256",
          "name": "liquidity",
          "type": "uint256"
        },
        {
          "internalType": "uint256",
          "name": "amountTokenMin",
          "type": "uint256"
        },
        {
          "internalType": "uint256",
          "name": "amountETHMin",
          "type": "uint256"
        },
        {
          "internalType": "address",
          "name": "to",
          "type": "address"
        },
        {
          "internalType": "uint256",
          "name": "deadline",
          "type": "uint256"
        },
        {
          "internalType": "bool",
          "name": "approveMax",
          "type": "bool"
        },
        {
          "internalType": "uint8",
          "name": "v",
          "type": "uint8"
        },
        {
          "internalType": "bytes32",
          "name": "r",
          "type": "bytes32"
        },
        {
          "internalType": "bytes32",
          "name": "s",
          "type": "bytes32"
        }
      ],
      "name": "removeLiquidityETHWithPermitSupportingFeeOnTransferTokens",
      "outputs": [
        {
          "internalType": "uint256",
          "name": "amountETH",
          "type": "uint256"
        }
      ],
      "stateMutability": "nonpayable",
      "type": "function"
    },
    {
      "inputs": [
        {
          "internalType": "uint256",
          "name": "amountIn",
          "type": "uint256"
        },
        {
          "internalType": "uint256",
          "name": "amountOutMin",
          "type": "uint256"
        },
        {
          "internalType": "address[]",
          "name": "path",
          "type": "address[]"
        },
        {
          "internalType": "address",
          "name": "to",
          "type": "address"
        },
        {
          "internalType": "uint256",
          "name": "deadline",
          "type": "uint256"
        }
      ],
      "name": "swapExactTokensForTokens",
      "outputs": [
        {
          "internalType": "uint256[]",
          "name": "amounts",
          "type": "uint256[]"
        }
      ],
      "stateMutability": "nonpayable",
      "type": "function"
    },
    {
      "inputs": [
        {
          "internalType": "uint256",
          "name": "amountOut",
          "type": "uint256"
        },
        {
          "internalType": "uint256",
          "name": "amountInMax",
          "type": "uint256"
        },
        {
          "internalType": "address[]",
          "name": "path",
          "type": "address[]"
        },
        {
          "internalType": "address",
          "name": "to",
          "type": "address"
        },
        {
          "internalType": "uint256",
          "name": "deadline",
          "type": "uint256"
        }
      ],
      "name": "swapTokensForExactTokens",
      "outputs": [
        {
          "internalType": "uint256[]",
          "name": "amounts",
          "type": "uint256[]"
        }
      ],
      "stateMutability": "nonpayable",
      "type": "function"
    },
    {
      "inputs": [
        {
          "internalType": "uint256",
          "name": "amountOutMin",
          "type": "uint256"
        },
        {
          "internalType": "address[]",
          "name": "path",
          "type": "address[]"
        },
        {
          "internalType": "address",
          "name": "to",
          "type": "address"
        },
        {
          "internalType": "uint256",
          "name": "deadline",
          "type": "uint256"
        }
      ],
      "name": "swapExactETHForTokens",
      "outputs": [
        {
          "internalType": "uint256[]",
          "name": "amounts",
          "type": "uint256[]"
        }
      ],
      "stateMutability": "payable",
      "type": "function",
      "payable": true
    },
    {
      "inputs": [
        {
          "internalType": "uint256",
          "name": "amountOut",
          "type": "uint256"
        },
        {
          "internalType": "uint256",
          "name": "amountInMax",
          "type": "uint256"
        },
        {
          "internalType": "address[]",
          "name": "path",
          "type": "address[]"
        },
        {
          "internalType": "address",
          "name": "to",
          "type": "address"
        },
        {
          "internalType": "uint256",
          "name": "deadline",
          "type": "uint256"
        }
      ],
      "name": "swapTokensForExactETH",
      "outputs": [
        {
          "internalType": "uint256[]",
          "name": "amounts",
          "type": "uint256[]"
        }
      ],
      "stateMutability": "nonpayable",
      "type": "function"
    },
    {
      "inputs": [
        {
          "internalType": "uint256",
          "name": "amountIn",
          "type": "uint256"
        },
        {
          "internalType": "uint256",
          "name": "amountOutMin",
          "type": "uint256"
        },
        {
          "internalType": "address[]",
          "name": "path",
          "type": "address[]"
        },
        {
          "internalType": "address",
          "name": "to",
          "type": "address"
        },
        {
          "internalType": "uint256",
          "name": "deadline",
          "type": "uint256"
        }
      ],
      "name": "swapExactTokensForETH",
      "outputs": [
        {
          "internalType": "uint256[]",
          "name": "amounts",
          "type": "uint256[]"
        }
      ],
      "stateMutability": "nonpayable",
      "type": "function"
    },
    {
      "inputs": [
        {
          "internalType": "uint256",
          "name": "amountOut",
          "type": "uint256"
        },
        {
          "internalType": "address[]",
          "name": "path",
          "type": "address[]"
        },
        {
          "internalType": "address",
          "name": "to",
          "type": "address"
        },
        {
          "internalType": "uint256",
          "name": "deadline",
          "type": "uint256"
        }
      ],
      "name": "swapETHForExactTokens",
      "outputs": [
        {
          "internalType": "uint256[]",
          "name": "amounts",
          "type": "uint256[]"
        }
      ],
      "stateMutability": "payable",
      "type": "function",
      "payable": true
    },
    {
      "inputs": [
        {
          "internalType": "uint256",
          "name": "amountIn",
          "type": "uint256"
        },
        {
          "internalType": "uint256",
          "name": "amountOutMin",
          "type": "uint256"
        },
        {
          "internalType": "address[]",
          "name": "path",
          "type": "address[]"
        },
        {
          "internalType": "address",
          "name": "to",
          "type": "address"
        },
        {
          "internalType": "uint256",
          "name": "deadline",
          "type": "uint256"
        }
      ],
      "name": "swapExactTokensForTokensSupportingFeeOnTransferTokens",
      "outputs": [],
      "stateMutability": "nonpayable",
      "type": "function"
    },
    {
      "inputs": [
        {
          "internalType": "uint256",
          "name": "amountOutMin",
          "type": "uint256"
        },
        {
          "internalType": "address[]",
          "name": "path",
          "type": "address[]"
        },
        {
          "internalType": "address",
          "name": "to",
          "type": "address"
        },
        {
          "internalType": "uint256",
          "name": "deadline",
          "type": "uint256"
        }
      ],
      "name": "swapExactETHForTokensSupportingFeeOnTransferTokens",
      "outputs": [],
      "stateMutability": "payable",
      "type": "function",
      "payable": true
    },
    {
      "inputs": [
        {
          "internalType": "uint256",
          "name": "amountIn",
          "type": "uint256"
        },
        {
          "internalType": "uint256",
          "name": "amountOutMin",
          "type": "uint256"
        },
        {
          "internalType": "address[]",
          "name": "path",
          "type": "address[]"
        },
        {
          "internalType": "address",
          "name": "to",
          "type": "address"
        },
        {
          "internalType": "uint256",
          "name": "deadline",
          "type": "uint256"
        }
      ],
      "name": "swapExactTokensForETHSupportingFeeOnTransferTokens",
      "outputs": [],
      "stateMutability": "nonpayable",
      "type": "function"
    },
    {
      "inputs": [
        {
          "internalType": "address",
          "name": "_factory",
          "type": "address"
        },
        {
          "internalType": "uint256",
          "name": "amountA",
          "type": "uint256"
        },
        {
          "internalType": "address",
          "name": "tokenA",
          "type": "address"
        },
        {
          "internalType": "address",
          "name": "tokenB",
          "type": "address"
        }
      ],
      "name": "quote",
      "outputs": [
        {
          "internalType": "uint256",
          "name": "amountB",
          "type": "uint256"
        }
      ],
      "stateMutability": "view",
      "type": "function",
      "constant": true
    },
    {
      "inputs": [
        {
          "internalType": "address",
          "name": "_factory",
          "type": "address"
        },
        {
          "internalType": "uint256",
          "name": "amountIn",
          "type": "uint256"
        },
        {
          "internalType": "address",
          "name": "tokenIn",
          "type": "address"
        },
        {
          "internalType": "address",
          "name": "tokenOut",
          "type": "address"
        }
      ],
      "name": "getAmountOut",
      "outputs": [
        {
          "internalType": "uint256",
          "name": "amountOut",
          "type": "uint256"
        }
      ],
      "stateMutability": "view",
      "type": "function",
      "constant": true
    },
    {
      "inputs": [
        {
          "internalType": "address",
          "name": "_factory",
          "type": "address"
        },
        {
          "internalType": "uint256",
          "name": "amountOut",
          "type": "uint256"
        },
        {
          "internalType": "address",
          "name": "tokenIn",
          "type": "address"
        },
        {
          "internalType": "address",
          "name": "tokenOut",
          "type": "address"
        }
      ],
      "name": "getAmountIn",
      "outputs": [
        {
          "internalType": "uint256",
          "name": "amountIn",
          "type": "uint256"
        }
      ],
      "stateMutability": "view",
      "type": "function",
      "constant": true
    },
    {
      "inputs": [
        {
          "internalType": "address",
          "name": "_factory",
          "type": "address"
        },
        {
          "internalType": "uint256",
          "name": "amountIn",
          "type": "uint256"
        },
        {
          "internalType": "address[]",
          "name": "path",
          "type": "address[]"
        }
      ],
      "name": "getAmountsOut",
      "outputs": [
        {
          "internalType": "uint256[]",
          "name": "amounts",
          "type": "uint256[]"
        }
      ],
      "stateMutability": "view",
      "type": "function",
      "constant": true
    },
    {
      "inputs": [
        {
          "internalType": "address",
          "name": "_factory",
          "type": "address"
        },
        {
          "internalType": "uint256",
          "name": "amountOut",
          "type": "uint256"
        },
        {
          "internalType": "address[]",
          "name": "path",
          "type": "address[]"
        }
      ],
      "name": "getAmountsIn",
      "outputs": [
        {
          "internalType": "uint256[]",
          "name": "amounts",
          "type": "uint256[]"
        }
      ],
      "stateMutability": "view",
      "type": "function",
      "constant": true
    }
  ],
  "bytecode": "0x60c060405234801561001057600080fd5b5060405162004fa738038062004fa78339818101604052604081101561003557600080fd5b5080516020909101516001600160601b0319606092831b8116608052911b1660a052600080546001600160a01b0319163317905560805160601c60a05160601c614e01620001a66000398061017a5280610def5280610e2a5280610f0c528061112a52806115ca52806117305280611afb5280611bf55280611cab5280611d795280611ebf5280611f47528061217f52806121ed528061229c528061236852806123fd528061247152806129ea5280612cf65280612d4c5280612d805280612df45280612f51528061300d528061315052806131d8525080610f9a5280611071528061121f528061136b528061147a5280611658528061170e528061187e5280611e0c5280611f7952806120cf52806124a352806126fc528061299c52806129c85280612b355280612d2a52806130a0528061320a528061399852806139db5280613ef55280614022528061409252806147eb52806148995280614919528061496852806149e95250614e016000f3fe60806040526004361061016a5760003560e01c80637ff36ab5116100d1578063bb7b9c761161008a578063ded9382a11610064578063ded9382a14610be5578063e8e3370014610c58578063f305d71914610cd8578063fb3bdb4114610d1e576101a3565b8063bb7b9c7614610ac4578063be19893f14610b87578063c45a015514610bd0576101a3565b80637ff36ab5146108455780638803dbee146108c9578063ad5c46481461095f578063af2979eb14610990578063b6f9de95146109e3578063baa2abde14610a67576101a3565b806338ed17391161012357806338ed1739146105315780634a25d94a146105c75780635b0d59841461065d5780635c11d795146106d057806366a80c8e14610766578063791ac947146107af576101a3565b806302751cec146101a857806318cbafe514610214578063192128b2146102fa5780631ad0cdb5146103bd5780632195995c14610418578063329a95d914610496576101a3565b366101a357336001600160a01b037f000000000000000000000000000000000000000000000000000000000000000016146101a157fe5b005b600080fd5b3480156101b457600080fd5b506101fb600480360360c08110156101cb57600080fd5b506001600160a01b0381358116916020810135916040820135916060810135916080820135169060a00135610da2565b6040805192835260208301919091528051918290030190f35b34801561022057600080fd5b506102aa600480360360a081101561023757600080fd5b813591602081013591810190606081016040820135600160201b81111561025d57600080fd5b82018360208201111561026f57600080fd5b803590602001918460208302840111600160201b8311171561029057600080fd5b91935091506001600160a01b038135169060200135610ebc565b60408051602080825283518183015283519192839290830191858101910280838360005b838110156102e65781810151838201526020016102ce565b505050509050019250505060405180910390f35b34801561030657600080fd5b506102aa6004803603606081101561031d57600080fd5b6001600160a01b0382351691602081013591810190606081016040820135600160201b81111561034c57600080fd5b82018360208201111561035e57600080fd5b803590602001918460208302840111600160201b8311171561037f57600080fd5b9190808060200260200160405190810160405280939291908181526020018383602002808284376000920191909152509295506111e9945050505050565b3480156103c957600080fd5b50610406600480360360808110156103e057600080fd5b506001600160a01b038135811691602081013591604082013581169160600135166111fe565b60408051918252519081900360200190f35b34801561042457600080fd5b506101fb600480360361016081101561043c57600080fd5b506001600160a01b038135811691602081013582169160408201359160608101359160808201359160a08101359091169060c08101359060e081013515159060ff6101008201351690610120810135906101400135611215565b3480156104a257600080fd5b506101a1600480360360808110156104b957600080fd5b6001600160a01b03823581169260208101359091169160408201359190810190608081016060820135600160201b8111156104f357600080fd5b82018360208201111561050557600080fd5b803590602001918460208302840111600160201b8311171561052657600080fd5b50909250905061130f565b34801561053d57600080fd5b506102aa600480360360a081101561055457600080fd5b813591602081013591810190606081016040820135600160201b81111561057a57600080fd5b82018360208201111561058c57600080fd5b803590602001918460208302840111600160201b831117156105ad57600080fd5b91935091506001600160a01b03813516906020013561142f565b3480156105d357600080fd5b506102aa600480360360a08110156105ea57600080fd5b813591602081013591810190606081016040820135600160201b81111561061057600080fd5b82018360208201111561062257600080fd5b803590602001918460208302840111600160201b8311171561064357600080fd5b91935091506001600160a01b03813516906020013561157a565b34801561066957600080fd5b50610406600480360361014081101561068157600080fd5b506001600160a01b0381358116916020810135916040820135916060810135916080820135169060a08101359060c081013515159060ff60e08201351690610100810135906101200135611706565b3480156106dc57600080fd5b506101a1600480360360a08110156106f357600080fd5b813591602081013591810190606081016040820135600160201b81111561071957600080fd5b82018360208201111561072b57600080fd5b803590602001918460208302840111600160201b8311171561074c57600080fd5b91935091506001600160a01b038135169060200135611814565b34801561077257600080fd5b506104066004803603608081101561078957600080fd5b506001600160a01b03813581169160208101359160408201358116916060013516611a9f565b3480156107bb57600080fd5b506101a1600480360360a08110156107d257600080fd5b813591602081013591810190606081016040820135600160201b8111156107f857600080fd5b82018360208201111561080a57600080fd5b803590602001918460208302840111600160201b8311171561082b57600080fd5b91935091506001600160a01b038135169060200135611aad565b6102aa6004803603608081101561085b57600080fd5b81359190810190604081016020820135600160201b81111561087c57600080fd5b82018360208201111561088e57600080fd5b803590602001918460208302840111600160201b831117156108af57600080fd5b91935091506001600160a01b038135169060200135611d31565b3480156108d557600080fd5b506102aa600480360360a08110156108ec57600080fd5b813591602081013591810190606081016040820135600160201b81111561091257600080fd5b82018360208201111561092457600080fd5b803590602001918460208302840111600160201b8311171561094557600080fd5b91935091506001600160a01b038135169060200135612084565b34801561096b57600080fd5b5061097461217d565b604080516001600160a01b039092168252519081900360200190f35b34801561099c57600080fd5b50610406600480360360c08110156109b357600080fd5b506001600160a01b0381358116916020810135916040820135916060810135916080820135169060a001356121a1565b6101a1600480360360808110156109f957600080fd5b81359190810190604081016020820135600160201b811115610a1a57600080fd5b820183602082011115610a2c57600080fd5b803590602001918460208302840111600160201b83111715610a4d57600080fd5b91935091506001600160a01b038135169060200135612322565b348015610a7357600080fd5b506101fb600480360360e0811015610a8a57600080fd5b506001600160a01b038135811691602081013582169160408201359160608101359160808201359160a08101359091169060c001356126ae565b348015610ad057600080fd5b506102aa60048036036060811015610ae757600080fd5b6001600160a01b0382351691602081013591810190606081016040820135600160201b811115610b1657600080fd5b820183602082011115610b2857600080fd5b803590602001918460208302840111600160201b83111715610b4957600080fd5b91908080602002602001604051908101604052809392919081815260200183836020028082843760009201919091525092955061297f945050505050565b348015610b9357600080fd5b5061040660048036036080811015610baa57600080fd5b506001600160a01b0381358116916020810135916040820135811691606001351661298c565b348015610bdc57600080fd5b5061097461299a565b348015610bf157600080fd5b506101fb6004803603610140811015610c0957600080fd5b506001600160a01b0381358116916020810135916040820135916060810135916080820135169060a08101359060c081013515159060ff60e082013516906101008101359061012001356129be565b348015610c6457600080fd5b50610cba6004803603610100811015610c7c57600080fd5b506001600160a01b038135811691602081013582169160408201359160608101359160808201359160a08101359160c0820135169060e00135612ad2565b60408051938452602084019290925282820152519081900360600190f35b610cba600480360360c0811015610cee57600080fd5b506001600160a01b0381358116916020810135916040820135916060810135916080820135169060a00135612ca7565b6102aa60048036036080811015610d3457600080fd5b81359190810190604081016020820135600160201b811115610d5557600080fd5b820183602082011115610d6757600080fd5b803590602001918460208302840111600160201b83111715610d8857600080fd5b91935091506001600160a01b038135169060200135612fc5565b6000808242811015610de9576040805162461bcd60e51b81526020600482015260186024820152600080516020614dac833981519152604482015290519081900360640190fd5b610e18897f00000000000000000000000000000000000000000000000000000000000000008a8a8a308a6126ae565b9093509150610e28898685613347565b7f00000000000000000000000000000000000000000000000000000000000000006001600160a01b0316632e1a7d4d836040518263ffffffff1660e01b815260040180828152602001915050600060405180830381600087803b158015610e8e57600080fd5b505af1158015610ea2573d6000803e3d6000fd5b50505050610eb0858361349b565b50965096945050505050565b60608142811015610f02576040805162461bcd60e51b81526020600482015260186024820152600080516020614dac833981519152604482015290519081900360640190fd5b6001600160a01b037f00000000000000000000000000000000000000000000000000000000000000001686866000198101818110610f3c57fe5b905060200201356001600160a01b03166001600160a01b031614610f95576040805162461bcd60e51b815260206004820152601d6024820152600080516020614d0e833981519152604482015290519081900360640190fd5b610ff37f00000000000000000000000000000000000000000000000000000000000000008988888080602002602001604051908101604052809392919081815260200183836020028082843760009201919091525061359392505050565b9150868260018451038151811061100657fe5b6020026020010151101561104b5760405162461bcd60e51b815260040180806020018281038252602b815260200180614d54602b913960400191505060405180910390fd5b6110e98686600081811061105b57fe5b905060200201356001600160a01b0316336110cf7f00000000000000000000000000000000000000000000000000000000000000008a8a600081811061109d57fe5b905060200201356001600160a01b03168b8b60018181106110ba57fe5b905060200201356001600160a01b03166136cc565b856000815181106110dc57fe5b602002602001015161378c565b611128828787808060200260200160405190810160405280939291908181526020018383602002808284376000920191909152503092506138e9915050565b7f00000000000000000000000000000000000000000000000000000000000000006001600160a01b0316632e1a7d4d8360018551038151811061116757fe5b60200260200101516040518263ffffffff1660e01b815260040180828152602001915050600060405180830381600087803b1580156111a557600080fd5b505af11580156111b9573d6000803e3d6000fd5b505050506111de84836001855103815181106111d157fe5b602002602001015161349b565b509695505050505050565b60606111f6848484613b2f565b949350505050565b600061120c85858585613c61565b95945050505050565b60008060006112457f00000000000000000000000000000000000000000000000000000000000000008f8f6136cc565b9050600087611254578c611258565b6000195b6040805163d505accf60e01b815233600482015230602482015260448101839052606481018c905260ff8a16608482015260a4810189905260c4810188905290519192506001600160a01b0384169163d505accf9160e48082019260009290919082900301818387803b1580156112ce57600080fd5b505af11580156112e2573d6000803e3d6000fd5b505050506112f58f8f8f8f8f8f8f6126ae565b809450819550505050509b509b9950505050505050505050565b6000546001600160a01b03163314611364576040805162461bcd60e51b815260206004820152601360248201527231b0b63632b91034b9903737ba1037bbb732b960691b604482015290519081900360640190fd5b60006113917f000000000000000000000000000000000000000000000000000000000000000087876136cc565b90508160005b8181101561142557826001600160a01b0316634c4569f18686848181106113ba57fe5b905060200201358389016040518363ffffffff1660e01b81526004018083815260200182815260200192505050600060405180830381600087803b15801561140157600080fd5b505af1158015611415573d6000803e3d6000fd5b5050600190920191506113979050565b5050505050505050565b60608142811015611475576040805162461bcd60e51b81526020600482015260186024820152600080516020614dac833981519152604482015290519081900360640190fd5b6114d37f00000000000000000000000000000000000000000000000000000000000000008988888080602002602001604051908101604052809392919081815260200183836020028082843760009201919091525061359392505050565b915086826001845103815181106114e657fe5b6020026020010151101561152b5760405162461bcd60e51b815260040180806020018281038252602b815260200180614d54602b913960400191505060405180910390fd5b61153b8686600081811061105b57fe5b6111de828787808060200260200160405190810160405280939291908181526020018383602002808284376000920191909152508992506138e9915050565b606081428110156115c0576040805162461bcd60e51b81526020600482015260186024820152600080516020614dac833981519152604482015290519081900360640190fd5b6001600160a01b037f000000000000000000000000000000000000000000000000000000000000000016868660001981018181106115fa57fe5b905060200201356001600160a01b03166001600160a01b031614611653576040805162461bcd60e51b815260206004820152601d6024820152600080516020614d0e833981519152604482015290519081900360640190fd5b6116b17f000000000000000000000000000000000000000000000000000000000000000089888880806020026020016040519081016040528093929190818152602001838360200280828437600092019190915250613b2f92505050565b915086826000815181106116c157fe5b6020026020010151111561104b5760405162461bcd60e51b8152600401808060200182810382526027815260200180614ce76027913960400191505060405180910390fd5b6000806117547f00000000000000000000000000000000000000000000000000000000000000008d7f00000000000000000000000000000000000000000000000000000000000000006136cc565b9050600086611763578b611767565b6000195b6040805163d505accf60e01b815233600482015230602482015260448101839052606481018b905260ff8916608482015260a4810188905260c4810187905290519192506001600160a01b0384169163d505accf9160e48082019260009290919082900301818387803b1580156117dd57600080fd5b505af11580156117f1573d6000803e3d6000fd5b505050506118038d8d8d8d8d8d6121a1565b9d9c50505050505050505050505050565b8042811015611858576040805162461bcd60e51b81526020600482015260186024820152600080516020614dac833981519152604482015290519081900360640190fd5b6118cd8585600081811061186857fe5b905060200201356001600160a01b0316336118c77f0000000000000000000000000000000000000000000000000000000000000000898960008181106118aa57fe5b905060200201356001600160a01b03168a8a60018181106110ba57fe5b8a61378c565b6000858560001981018181106118df57fe5b905060200201356001600160a01b03166001600160a01b03166370a08231856040518263ffffffff1660e01b815260040180826001600160a01b03166001600160a01b0316815260200191505060206040518083038186803b15801561194457600080fd5b505afa158015611958573d6000803e3d6000fd5b505050506040513d602081101561196e57600080fd5b505160408051602088810282810182019093528882529293506119b0929091899189918291850190849080828437600092019190915250889250613e9e915050565b86611a6282888860001981018181106119c557fe5b905060200201356001600160a01b03166001600160a01b03166370a08231886040518263ffffffff1660e01b815260040180826001600160a01b03166001600160a01b0316815260200191505060206040518083038186803b158015611a2a57600080fd5b505afa158015611a3e573d6000803e3d6000fd5b505050506040513d6020811015611a5457600080fd5b50519063ffffffff6141c716565b10156114255760405162461bcd60e51b815260040180806020018281038252602b815260200180614d54602b913960400191505060405180910390fd5b600061120c8585858561421d565b8042811015611af1576040805162461bcd60e51b81526020600482015260186024820152600080516020614dac833981519152604482015290519081900360640190fd5b6001600160a01b037f00000000000000000000000000000000000000000000000000000000000000001685856000198101818110611b2b57fe5b905060200201356001600160a01b03166001600160a01b031614611b84576040805162461bcd60e51b815260206004820152601d6024820152600080516020614d0e833981519152604482015290519081900360640190fd5b611b948585600081811061186857fe5b611bd2858580806020026020016040519081016040528093929190818152602001838360200280828437600092019190915250309250613e9e915050565b604080516370a0823160e01b815230600482015290516000916001600160a01b037f000000000000000000000000000000000000000000000000000000000000000016916370a0823191602480820192602092909190829003018186803b158015611c3c57600080fd5b505afa158015611c50573d6000803e3d6000fd5b505050506040513d6020811015611c6657600080fd5b5051905086811015611ca95760405162461bcd60e51b815260040180806020018281038252602b815260200180614d54602b913960400191505060405180910390fd5b7f00000000000000000000000000000000000000000000000000000000000000006001600160a01b0316632e1a7d4d826040518263ffffffff1660e01b815260040180828152602001915050600060405180830381600087803b158015611d0f57600080fd5b505af1158015611d23573d6000803e3d6000fd5b50505050611425848261349b565b60608142811015611d77576040805162461bcd60e51b81526020600482015260186024820152600080516020614dac833981519152604482015290519081900360640190fd5b7f00000000000000000000000000000000000000000000000000000000000000006001600160a01b031686866000818110611dae57fe5b905060200201356001600160a01b03166001600160a01b031614611e07576040805162461bcd60e51b815260206004820152601d6024820152600080516020614d0e833981519152604482015290519081900360640190fd5b611e657f00000000000000000000000000000000000000000000000000000000000000003488888080602002602001604051908101604052809392919081815260200183836020028082843760009201919091525061359392505050565b91508682600184510381518110611e7857fe5b60200260200101511015611ebd5760405162461bcd60e51b815260040180806020018281038252602b815260200180614d54602b913960400191505060405180910390fd5b7f00000000000000000000000000000000000000000000000000000000000000006001600160a01b031663d0e30db083600081518110611ef957fe5b60200260200101516040518263ffffffff1660e01b81526004016000604051808303818588803b158015611f2c57600080fd5b505af1158015611f40573d6000803e3d6000fd5b50505050507f00000000000000000000000000000000000000000000000000000000000000006001600160a01b031663a9059cbb611fa57f0000000000000000000000000000000000000000000000000000000000000000898960008181106118aa57fe5b84600081518110611fb257fe5b60200260200101516040518363ffffffff1660e01b815260040180836001600160a01b03166001600160a01b0316815260200182815260200192505050602060405180830381600087803b15801561200957600080fd5b505af115801561201d573d6000803e3d6000fd5b505050506040513d602081101561203357600080fd5b505161203b57fe5b61207a828787808060200260200160405190810160405280939291908181526020018383602002808284376000920191909152508992506138e9915050565b5095945050505050565b606081428110156120ca576040805162461bcd60e51b81526020600482015260186024820152600080516020614dac833981519152604482015290519081900360640190fd5b6121287f000000000000000000000000000000000000000000000000000000000000000089888880806020026020016040519081016040528093929190818152602001838360200280828437600092019190915250613b2f92505050565b9150868260008151811061213857fe5b6020026020010151111561152b5760405162461bcd60e51b8152600401808060200182810382526027815260200180614ce76027913960400191505060405180910390fd5b7f000000000000000000000000000000000000000000000000000000000000000081565b600081428110156121e7576040805162461bcd60e51b81526020600482015260186024820152600080516020614dac833981519152604482015290519081900360640190fd5b612216887f000000000000000000000000000000000000000000000000000000000000000089898930896126ae565b604080516370a0823160e01b8152306004820152905191945061229a92508a9187916001600160a01b038416916370a0823191602480820192602092909190829003018186803b15801561226957600080fd5b505afa15801561227d573d6000803e3d6000fd5b505050506040513d602081101561229357600080fd5b5051613347565b7f00000000000000000000000000000000000000000000000000000000000000006001600160a01b0316632e1a7d4d836040518263ffffffff1660e01b815260040180828152602001915050600060405180830381600087803b15801561230057600080fd5b505af1158015612314573d6000803e3d6000fd5b505050506111de848361349b565b8042811015612366576040805162461bcd60e51b81526020600482015260186024820152600080516020614dac833981519152604482015290519081900360640190fd5b7f00000000000000000000000000000000000000000000000000000000000000006001600160a01b03168585600081811061239d57fe5b905060200201356001600160a01b03166001600160a01b0316146123f6576040805162461bcd60e51b815260206004820152601d6024820152600080516020614d0e833981519152604482015290519081900360640190fd5b60003490507f00000000000000000000000000000000000000000000000000000000000000006001600160a01b031663d0e30db0826040518263ffffffff1660e01b81526004016000604051808303818588803b15801561245657600080fd5b505af115801561246a573d6000803e3d6000fd5b50505050507f00000000000000000000000000000000000000000000000000000000000000006001600160a01b031663a9059cbb6124cf7f0000000000000000000000000000000000000000000000000000000000000000898960008181106118aa57fe5b836040518363ffffffff1660e01b815260040180836001600160a01b03166001600160a01b0316815260200182815260200192505050602060405180830381600087803b15801561251f57600080fd5b505af1158015612533573d6000803e3d6000fd5b505050506040513d602081101561254957600080fd5b505161255157fe5b60008686600019810181811061256357fe5b905060200201356001600160a01b03166001600160a01b03166370a08231866040518263ffffffff1660e01b815260040180826001600160a01b03166001600160a01b0316815260200191505060206040518083038186803b1580156125c857600080fd5b505afa1580156125dc573d6000803e3d6000fd5b505050506040513d60208110156125f257600080fd5b505160408051602089810282810182019093528982529293506126349290918a918a918291850190849080828437600092019190915250899250613e9e915050565b87611a62828989600019810181811061264957fe5b905060200201356001600160a01b03166001600160a01b03166370a08231896040518263ffffffff1660e01b815260040180826001600160a01b03166001600160a01b0316815260200191505060206040518083038186803b158015611a2a57600080fd5b60008082428110156126f5576040805162461bcd60e51b81526020600482015260186024820152600080516020614dac833981519152604482015290519081900360640190fd5b60006127227f00000000000000000000000000000000000000000000000000000000000000008c8c6136cc565b604080516323b872dd60e01b81523360048201526001600160a01b03831660248201819052604482018d9052915192935090916323b872dd916064808201926020929091908290030181600087803b15801561277d57600080fd5b505af1158015612791573d6000803e3d6000fd5b505050506040513d60208110156127a757600080fd5b50506040805163226bf2d160e21b81526001600160a01b03888116600483015282516000938493928616926389afcb44926024808301939282900301818787803b1580156127f457600080fd5b505af1158015612808573d6000803e3d6000fd5b505050506040513d604081101561281e57600080fd5b508051602090910151909250905060006128388e8e6144de565b509050806001600160a01b03168e6001600160a01b03161461285b57818361285e565b82825b90975095508a8710156128a25760405162461bcd60e51b8152600401808060200182810382526026815260200180614d2e6026913960400191505060405180910390fd5b898610156128e15760405162461bcd60e51b8152600401808060200182810382526026815260200180614c746026913960400191505060405180910390fd5b7fc781756b0b81ce5fb2c4f743e4741c8df574348b0c0b3df11b797effeae408738e8e89898860405180866001600160a01b03166001600160a01b03168152602001856001600160a01b03166001600160a01b03168152602001848152602001838152602001826001600160a01b03166001600160a01b031681526020019550505050505060405180910390a1505050505097509795505050505050565b60606111f6848484613593565b600061120c858585856145bc565b7f000000000000000000000000000000000000000000000000000000000000000081565b6000806000612a0e7f00000000000000000000000000000000000000000000000000000000000000008e7f00000000000000000000000000000000000000000000000000000000000000006136cc565b9050600087612a1d578c612a21565b6000195b6040805163d505accf60e01b815233600482015230602482015260448101839052606481018c905260ff8a16608482015260a4810189905260c4810188905290519192506001600160a01b0384169163d505accf9160e48082019260009290919082900301818387803b158015612a9757600080fd5b505af1158015612aab573d6000803e3d6000fd5b50505050612abd8e8e8e8e8e8e610da2565b909f909e509c50505050505050505050505050565b60008060008342811015612b1b576040805162461bcd60e51b81526020600482015260186024820152600080516020614dac833981519152604482015290519081900360640190fd5b612b298c8c8c8c8c8c6147ba565b90945092506000612b5b7f00000000000000000000000000000000000000000000000000000000000000008e8e6136cc565b9050612b698d33838861378c565b612b758c33838761378c565b806001600160a01b0316636a627842886040518263ffffffff1660e01b815260040180826001600160a01b03166001600160a01b03168152602001915050602060405180830381600087803b158015612bcd57600080fd5b505af1158015612be1573d6000803e3d6000fd5b505050506040513d6020811015612bf757600080fd5b810190808051906020019092919050505092507f2f100705710db4e6f318e6639e8e502768f5769f517574ca512b0efa6ab5406b8d8d87878560405180866001600160a01b03166001600160a01b03168152602001856001600160a01b03166001600160a01b03168152602001848152602001838152602001826001600160a01b03166001600160a01b031681526020019550505050505060405180910390a15050985098509895505050505050565b60008060008342811015612cf0576040805162461bcd60e51b81526020600482015260186024820152600080516020614dac833981519152604482015290519081900360640190fd5b612d1e8a7f00000000000000000000000000000000000000000000000000000000000000008b348c8c6147ba565b90945092506000612d707f00000000000000000000000000000000000000000000000000000000000000008c7f00000000000000000000000000000000000000000000000000000000000000006136cc565b9050612d7e8b33838861378c565b7f00000000000000000000000000000000000000000000000000000000000000006001600160a01b031663d0e30db0856040518263ffffffff1660e01b81526004016000604051808303818588803b158015612dd957600080fd5b505af1158015612ded573d6000803e3d6000fd5b50505050507f00000000000000000000000000000000000000000000000000000000000000006001600160a01b031663a9059cbb82866040518363ffffffff1660e01b815260040180836001600160a01b03166001600160a01b0316815260200182815260200192505050602060405180830381600087803b158015612e7257600080fd5b505af1158015612e86573d6000803e3d6000fd5b505050506040513d6020811015612e9c57600080fd5b5051612ea457fe5b806001600160a01b0316636a627842886040518263ffffffff1660e01b815260040180826001600160a01b03166001600160a01b03168152602001915050602060405180830381600087803b158015612efc57600080fd5b505af1158015612f10573d6000803e3d6000fd5b505050506040513d6020811015612f2657600080fd5b5051925034841015612f3e57612f3e3385340361349b565b604080516001600160a01b03808e1682527f000000000000000000000000000000000000000000000000000000000000000081166020830152818301889052606082018790528316608082015290517f2f100705710db4e6f318e6639e8e502768f5769f517574ca512b0efa6ab5406b9181900360a00190a1505096509650969350505050565b6060814281101561300b576040805162461bcd60e51b81526020600482015260186024820152600080516020614dac833981519152604482015290519081900360640190fd5b7f00000000000000000000000000000000000000000000000000000000000000006001600160a01b03168686600081811061304257fe5b905060200201356001600160a01b03166001600160a01b03161461309b576040805162461bcd60e51b815260206004820152601d6024820152600080516020614d0e833981519152604482015290519081900360640190fd5b6130f97f000000000000000000000000000000000000000000000000000000000000000088888880806020026020016040519081016040528093929190818152602001838360200280828437600092019190915250613b2f92505050565b9150348260008151811061310957fe5b6020026020010151111561314e5760405162461bcd60e51b8152600401808060200182810382526027815260200180614ce76027913960400191505060405180910390fd5b7f00000000000000000000000000000000000000000000000000000000000000006001600160a01b031663d0e30db08360008151811061318a57fe5b60200260200101516040518263ffffffff1660e01b81526004016000604051808303818588803b1580156131bd57600080fd5b505af11580156131d1573d6000803e3d6000fd5b50505050507f00000000000000000000000000000000000000000000000000000000000000006001600160a01b031663a9059cbb6132367f0000000000000000000000000000000000000000000000000000000000000000898960008181106118aa57fe5b8460008151811061324357fe5b60200260200101516040518363ffffffff1660e01b815260040180836001600160a01b03166001600160a01b0316815260200182815260200192505050602060405180830381600087803b15801561329a57600080fd5b505af11580156132ae573d6000803e3d6000fd5b505050506040513d60208110156132c457600080fd5b50516132cc57fe5b61330b828787808060200260200160405190810160405280939291908181526020018383602002808284376000920191909152508992506138e9915050565b8160008151811061331857fe5b602002602001015134111561207a5761207a338360008151811061333857fe5b6020026020010151340361349b565b604080516001600160a01b038481166024830152604480830185905283518084039091018152606490920183526020820180516001600160e01b031663a9059cbb60e01b178152925182516000946060949389169392918291908083835b602083106133c45780518252601f1990920191602091820191016133a5565b6001836020036101000a0380198251168184511680821785525050505050509050019150506000604051808303816000865af19150503d8060008114613426576040519150601f19603f3d011682016040523d82523d6000602084013e61342b565b606091505b5091509150818015613459575080511580613459575080806020019051602081101561345657600080fd5b50515b6134945760405162461bcd60e51b815260040180806020018281038252602d815260200180614d7f602d913960400191505060405180910390fd5b5050505050565b604080516000808252602082019092526001600160a01b0384169083906040518082805190602001908083835b602083106134e75780518252601f1990920191602091820191016134c8565b6001836020036101000a03801982511681845116808217855250505050505090500191505060006040518083038185875af1925050503d8060008114613549576040519150601f19603f3d011682016040523d82523d6000602084013e61354e565b606091505b505090508061358e5760405162461bcd60e51b8152600401808060200182810382526034815260200180614c1b6034913960400191505060405180910390fd5b505050565b60606002825110156135ec576040805162461bcd60e51b815260206004820152601e60248201527f556e697377617056324c6962726172793a20494e56414c49445f504154480000604482015290519081900360640190fd5b815167ffffffffffffffff8111801561360457600080fd5b5060405190808252806020026020018201604052801561362e578160200160208202803683370190505b509050828160008151811061363f57fe5b60200260200101818152505060005b60018351038110156136c4576136a28583838151811061366a57fe5b602002602001015185848151811061367e57fe5b602002602001015186856001018151811061369557fe5b6020026020010151613c61565b8282600101815181106136b157fe5b602090810291909101015260010161364e565b509392505050565b60008060006136db85856144de565b604080516bffffffffffffffffffffffff19606094851b811660208084019190915293851b81166034830152825160288184030181526048830184528051908501206001600160f81b031960688401529a90941b9093166069840152607d8301989098527faed99fed87db294c1cb69dfc4c7cd6aa8c4d71ff0126563e514a36f64aeb4511609d808401919091528851808403909101815260bd909201909752805196019590952095945050505050565b604080516001600160a01b0385811660248301528481166044830152606480830185905283518084039091018152608490920183526020820180516001600160e01b03166323b872dd60e01b17815292518251600094606094938a169392918291908083835b602083106138115780518252601f1990920191602091820191016137f2565b6001836020036101000a0380198251168184511680821785525050505050509050019150506000604051808303816000865af19150503d8060008114613873576040519150601f19603f3d011682016040523d82523d6000602084013e613878565b606091505b50915091508180156138a65750805115806138a657508080602001905160208110156138a357600080fd5b50515b6138e15760405162461bcd60e51b8152600401808060200182810382526031815260200180614bea6031913960400191505060405180910390fd5b505050505050565b60005b6001835103811015613b295760008084838151811061390757fe5b602002602001015185846001018151811061391e57fe5b602002602001015191509150600061393683836144de565b509050600087856001018151811061394a57fe5b60200260200101519050600080836001600160a01b0316866001600160a01b0316146139785782600061397c565b6000835b91509150600060028a5103881061399357886139d4565b6139d47f0000000000000000000000000000000000000000000000000000000000000000878c8b600201815181106139c757fe5b60200260200101516136cc565b9050613a017f000000000000000000000000000000000000000000000000000000000000000088886136cc565b6001600160a01b031663022c0d9f84848460006040519080825280601f01601f191660200182016040528015613a3e576020820181803683370190505b506040518563ffffffff1660e01b815260040180858152602001848152602001836001600160a01b03166001600160a01b0316815260200180602001828103825283818151815260200191508051906020019080838360005b83811015613aaf578181015183820152602001613a97565b50505050905090810190601f168015613adc5780820380516001836020036101000a031916815260200191505b5095505050505050600060405180830381600087803b158015613afe57600080fd5b505af1158015613b12573d6000803e3d6000fd5b5050600190990198506138ec975050505050505050565b50505050565b6060600282511015613b88576040805162461bcd60e51b815260206004820152601e60248201527f556e697377617056324c6962726172793a20494e56414c49445f504154480000604482015290519081900360640190fd5b815167ffffffffffffffff81118015613ba057600080fd5b50604051908082528060200260200182016040528015613bca578160200160208202803683370190505b5090508281600183510381518110613bde57fe5b60209081029190910101528151600019015b80156136c457613c3e85838381518110613c0657fe5b6020026020010151856001850381518110613c1d57fe5b6020026020010151868581518110613c3157fe5b602002602001015161421d565b826001830381518110613c4d57fe5b602090810291909101015260001901613bf0565b600080613c6f8685856136cc565b9050600080826001600160a01b0316630902f1ac6040518163ffffffff1660e01b815260040160606040518083038186803b158015613cad57600080fd5b505afa158015613cc1573d6000803e3d6000fd5b505050506040513d6060811015613cd757600080fd5b5080516020909101516001600160701b0391821693501690508115801590613cff5750600081115b613d3a5760405162461bcd60e51b8152600401808060200182810382526028815260200180614c9a6028913960400191505060405180910390fd5b6000613d4e886103e563ffffffff614a7016565b90506000846001600160a01b0316638928378e436040518263ffffffff1660e01b81526004018082815260200191505060206040518083038186803b158015613d9657600080fd5b505afa158015613daa573d6000803e3d6000fd5b505050506040513d6020811015613dc057600080fd5b50519050670de0b6b3a76400006000613dd98a8a6144de565b5090506000613dee858763ffffffff614a7016565b905060008b6001600160a01b0316836001600160a01b03161415613e505784613e2f85613e238a6103e863ffffffff614a7016565b9063ffffffff614a7016565b81613e3657fe5b049050613e49818763ffffffff614ad316565b9050613e82565b83613e7786613e23613e6a8b6103e863ffffffff614a7016565b8a9063ffffffff614ad316565b81613e7e57fe5b0490505b808281613e8b57fe5b049e9d5050505050505050505050505050565b60005b600183510381101561358e57600080848381518110613ebc57fe5b6020026020010151858460010181518110613ed357fe5b6020026020010151915091506000613eeb83836144de565b5090506000613f1b7f000000000000000000000000000000000000000000000000000000000000000085856136cc565b9050600080600080846001600160a01b0316630902f1ac6040518163ffffffff1660e01b815260040160606040518083038186803b158015613f5c57600080fd5b505afa158015613f70573d6000803e3d6000fd5b505050506040513d6060811015613f8657600080fd5b5080516020909101516001600160701b03918216935016905060006001600160a01b0389811690881614613fbb578183613fbe565b82825b50905061401b818a6001600160a01b03166370a08231896040518263ffffffff1660e01b815260040180826001600160a01b03166001600160a01b0316815260200191505060206040518083038186803b158015611a2a57600080fd5b94506140497f0000000000000000000000000000000000000000000000000000000000000000868b8b613c61565b9350505050600080856001600160a01b0316886001600160a01b03161461407257826000614076565b6000835b91509150600060028c51038a1061408d578a6140c1565b6140c17f0000000000000000000000000000000000000000000000000000000000000000898e8d600201815181106139c757fe5b604080516000808252602082019283905263022c0d9f60e01b835260248201878152604483018790526001600160a01b038086166064850152608060848501908152845160a48601819052969750908c169563022c0d9f958a958a958a9591949193919260c486019290918190849084905b8381101561414b578181015183820152602001614133565b50505050905090810190601f1680156141785780820380516001836020036101000a031916815260200191505b5095505050505050600060405180830381600087803b15801561419a57600080fd5b505af11580156141ae573d6000803e3d6000fd5b50506001909b019a50613ea19950505050505050505050565b80820382811115614217576040805162461bcd60e51b815260206004820152601560248201527464732d6d6174682d7375622d756e646572666c6f7760581b604482015290519081900360640190fd5b92915050565b60008061422b8685856136cc565b9050600080826001600160a01b0316630902f1ac6040518163ffffffff1660e01b815260040160606040518083038186803b15801561426957600080fd5b505afa15801561427d573d6000803e3d6000fd5b505050506040513d606081101561429357600080fd5b5080516020909101516001600160701b03918216935016905081158015906142bb5750600081115b6142f65760405162461bcd60e51b8152600401808060200182810382526028815260200180614c9a6028913960400191505060405180910390fd5b6000836001600160a01b0316638928378e436040518263ffffffff1660e01b81526004018082815260200191505060206040518083038186803b15801561433c57600080fd5b505afa158015614350573d6000803e3d6000fd5b505050506040513d602081101561436657600080fd5b50519050670de0b6b3a7640000600061437f89896144de565b50905060006143948b8663ffffffff614a7016565b905060008a6001600160a01b0316836001600160a01b03161415614417578b86116143f05760405162461bcd60e51b8152600401808060200182810382526028815260200180614c9a6028913960400191505060405180910390fd5b8361440886613e238f8a6141c790919063ffffffff16565b8161440f57fe5b049050614490565b8b87116144555760405162461bcd60e51b8152600401808060200182810382526028815260200180614c9a6028913960400191505060405180910390fd5b846144856144698e8363ffffffff614a7016565b614479898863ffffffff614a7016565b9063ffffffff6141c716565b8161448c57fe5b0490505b600081838161449b57fe5b0490506144cc60016103e56144b8846103e863ffffffff614a7016565b816144bf57fe5b049063ffffffff614ad316565b9e9d5050505050505050505050505050565b600080826001600160a01b0316846001600160a01b031614156145325760405162461bcd60e51b8152600401808060200182810382526025815260200180614c4f6025913960400191505060405180910390fd5b826001600160a01b0316846001600160a01b031610614552578284614555565b83835b90925090506001600160a01b0382166145b5576040805162461bcd60e51b815260206004820152601e60248201527f556e697377617056324c6962726172793a205a45524f5f414444524553530000604482015290519081900360640190fd5b9250929050565b60008084116145fc5760405162461bcd60e51b8152600401808060200182810382526025815260200180614cc26025913960400191505060405180910390fd5b60006146098685856136cc565b9050600080826001600160a01b0316630902f1ac6040518163ffffffff1660e01b815260040160606040518083038186803b15801561464757600080fd5b505afa15801561465b573d6000803e3d6000fd5b505050506040513d606081101561467157600080fd5b5080516020909101516001600160701b03918216935016905081158015906146995750600081115b6146d45760405162461bcd60e51b8152600401808060200182810382526028815260200180614c9a6028913960400191505060405180910390fd5b60006146e087876144de565b5090506000846001600160a01b0316638928378e436040518263ffffffff1660e01b81526004018082815260200191505060206040518083038186803b15801561472957600080fd5b505afa15801561473d573d6000803e3d6000fd5b505050506040513d602081101561475357600080fd5b50519050670de0b6b3a76400006001600160a01b038981169084161461479157816147848b8363ffffffff614a7016565b8161478b57fe5b046147ab565b806147a28b8463ffffffff614a7016565b816147a957fe5b045b9b9a5050505050505050505050565b6040805163e6a4390560e01b81526001600160a01b03888116600483015287811660248301529151600092839283927f00000000000000000000000000000000000000000000000000000000000000009092169163e6a4390591604480820192602092909190829003018186803b15801561483457600080fd5b505afa158015614848573d6000803e3d6000fd5b505050506040513d602081101561485e57600080fd5b50516001600160a01b0316141561491157604080516364e329cb60e11b81526001600160a01b038a81166004830152898116602483015291517f00000000000000000000000000000000000000000000000000000000000000009092169163c9c65396916044808201926020929091908290030181600087803b1580156148e457600080fd5b505af11580156148f8573d6000803e3d6000fd5b505050506040513d602081101561490e57600080fd5b50505b60008061493f7f00000000000000000000000000000000000000000000000000000000000000008b8b614b22565b91509150816000148015614951575080155b1561496157879350869250614a63565b600061498f7f00000000000000000000000000000000000000000000000000000000000000008a8d8d6145bc565b90508781116149e257858110156149d75760405162461bcd60e51b8152600401808060200182810382526026815260200180614c746026913960400191505060405180910390fd5b889450925082614a61565b6000614a107f00000000000000000000000000000000000000000000000000000000000000008a8d8f6145bc565b905089811115614a1c57fe5b87811015614a5b5760405162461bcd60e51b8152600401808060200182810382526026815260200180614d2e6026913960400191505060405180910390fd5b94508793505b505b5050965096945050505050565b6000811580614a8b57505080820282828281614a8857fe5b04145b614217576040805162461bcd60e51b815260206004820152601460248201527364732d6d6174682d6d756c2d6f766572666c6f7760601b604482015290519081900360640190fd5b80820182811015614217576040805162461bcd60e51b815260206004820152601460248201527364732d6d6174682d6164642d6f766572666c6f7760601b604482015290519081900360640190fd5b6000806000614b3185856144de565b509050600080614b428888886136cc565b6001600160a01b0316630902f1ac6040518163ffffffff1660e01b815260040160606040518083038186803b158015614b7a57600080fd5b505afa158015614b8e573d6000803e3d6000fd5b505050506040513d6060811015614ba457600080fd5b5080516020909101516001600160701b0391821693501690506001600160a01b0387811690841614614bd7578082614bda565b81815b9099909850965050505050505056fe5472616e7366657248656c7065723a3a7472616e7366657246726f6d3a207472616e7366657246726f6d206661696c65645472616e7366657248656c7065723a3a736166655472616e736665724554483a20455448207472616e73666572206661696c6564556e697377617056324c6962726172793a204944454e544943414c5f414444524553534553556e69737761705632526f757465723a20494e53554646494349454e545f425f414d4f554e54556e697377617056324c6962726172793a20494e53554646494349454e545f4c4951554944495459556e697377617056324c6962726172793a20494e53554646494349454e545f414d4f554e54556e69737761705632526f757465723a204558434553534956455f494e5055545f414d4f554e54556e69737761705632526f757465723a20494e56414c49445f50415448000000556e69737761705632526f757465723a20494e53554646494349454e545f415f414d4f554e54556e69737761705632526f757465723a20494e53554646494349454e545f4f55545055545f414d4f554e545472616e7366657248656c7065723a3a736166655472616e736665723a207472616e73666572206661696c6564556e69737761705632526f757465723a20455850495245440000000000000000a2646970667358221220f3d32ee52b8af6edb2ac4c2b38e08b6ce9d9c7d824c20fecc6e838a37ef634ae64736f6c63430006060033",
  "immutableReferences": {
    "1537": [
      {
        "length": 32,
        "start": 3994
      },
      {
        "length": 32,
        "start": 4209
      },
      {
        "length": 32,
        "start": 4639
      },
      {
        "length": 32,
        "start": 4971
      },
      {
        "length": 32,
        "start": 5242
      },
      {
        "length": 32,
        "start": 5720
      },
      {
        "length": 32,
        "start": 5902
      },
      {
        "length": 32,
        "start": 6270
      },
      {
        "length": 32,
        "start": 7692
      },
      {
        "length": 32,
        "start": 8057
      },
      {
        "length": 32,
        "start": 8399
      },
      {
        "length": 32,
        "start": 9379
      },
      {
        "length": 32,
        "start": 9980
      },
      {
        "length": 32,
        "start": 10652
      },
      {
        "length": 32,
        "start": 10696
      },
      {
        "length": 32,
        "start": 11061
      },
      {
        "length": 32,
        "start": 11562
      },
      {
        "length": 32,
        "start": 12448
      },
      {
        "length": 32,
        "start": 12810
      },
      {
        "length": 32,
        "start": 14744
      },
      {
        "length": 32,
        "start": 14811
      },
      {
        "length": 32,
        "start": 16117
      },
      {
        "length": 32,
        "start": 16418
      },
      {
        "length": 32,
        "start": 16530
      },
      {
        "length": 32,
        "start": 18411
      },
      {
        "length": 32,
        "start": 18585
      },
      {
        "length": 32,
        "start": 18713
      },
      {
        "length": 32,
        "start": 18792
      },
      {
        "length": 32,
        "start": 18921
      }
    ],
    "1540": [
      {
        "length": 32,
        "start": 378
      },
      {
        "length": 32,
        "start": 3567
      },
      {
        "length": 32,
        "start": 3626
      },
      {
        "length": 32,
        "start": 3852
      },
      {
        "length": 32,
        "start": 4394
      },
      {
        "length": 32,
        "start": 5578
      },
      {
        "length": 32,
        "start": 5936
      },
      {
        "length": 32,
        "start": 6907
      },
      {
        "length": 32,
        "start": 7157
      },
      {
        "length": 32,
        "start": 7339
      },
      {
        "length": 32,
        "start": 7545
      },
      {
        "length": 32,
        "start": 7871
      },
      {
        "length": 32,
        "start": 8007
      },
      {
        "length": 32,
        "start": 8575
      },
      {
        "length": 32,
        "start": 8685
      },
      {
        "length": 32,
        "start": 8860
      },
      {
        "length": 32,
        "start": 9064
      },
      {
        "length": 32,
        "start": 9213
      },
      {
        "length": 32,
        "start": 9329
      },
      {
        "length": 32,
        "start": 10730
      },
      {
        "length": 32,
        "start": 11510
      },
      {
        "length": 32,
        "start": 11596
      },
      {
        "length": 32,
        "start": 11648
      },
      {
        "length": 32,
        "start": 11764
      },
      {
        "length": 32,
        "start": 12113
      },
      {
        "length": 32,
        "start": 12301
      },
      {
        "length": 32,
        "start": 12624
      },
      {
        "length": 32,
        "start": 12760
      }
    ]
  },
  "source": "pragma solidity =0.6.6;\r\n\r\nimport './interfaces/IUniswapV2Factory.sol';\r\nimport './libraries/TransferHelper.sol';\r\n\r\nimport './interfaces/IUniswapV2Router02.sol';\r\nimport './libraries/UniswapV2Library.sol';\r\nimport './libraries/SafeMath.sol';\r\nimport './interfaces/IERC20.sol';\r\nimport './interfaces/IWETH.sol';\r\n\r\ncontract UniswapV2Router02 is IUniswapV2Router02 {\r\n    using SafeMath for uint;\r\n\r\n    address public immutable override factory;\r\n    address public immutable override WETH;\r\n\r\n    address private priceSetter;\r\n\r\n    modifier onlyPriceSetter() {\r\n        require(msg.sender == priceSetter, 'caller is not owner');\r\n        _;\r\n    }\r\n\r\n    modifier ensure(uint deadline) {\r\n        require(deadline >= block.timestamp, 'UniswapV2Router: EXPIRED');\r\n        _;\r\n    }\r\n\r\n    constructor(address _factory, address _WETH) public {\r\n        factory = _factory;\r\n        WETH = _WETH;\r\n        priceSetter = msg.sender;\r\n    }\r\n\r\n    receive() external payable {\r\n        assert(msg.sender == WETH); // only accept ETH via fallback from the WETH contract\r\n    }\r\n\r\n    event AddLiquidity(address tokenA, address tokenB, uint amountA, uint amountB, address pair);\r\n    event RemoveLiquidity(address tokenA, address tokenB, uint amountA, uint amountB, address pair);\r\n\r\n    // need parse\r\n    function setMarketPricesAtPool(address token0, address token1, uint blockNumber, uint[] calldata prices) external override onlyPriceSetter {\r\n        address pair = UniswapV2Library.pairFor(factory, token0, token1);\r\n        uint length = prices.length;\r\n        for (uint i = 0; i < length; i++) {\r\n            IUniswapV2Pair(pair).setMarketPrice(prices[i], blockNumber + i);\r\n        }\r\n    }\r\n\r\n    // **** ADD LIQUIDITY ****\r\n    function _addLiquidity(\r\n        address tokenA,\r\n        address tokenB,\r\n        uint amountADesired,\r\n        uint amountBDesired,\r\n        uint amountAMin,\r\n        uint amountBMin\r\n    ) internal virtual returns (uint amountA, uint amountB) {\r\n        // create the pair if it doesn't exist yet\r\n        if (IUniswapV2Factory(factory).getPair(tokenA, tokenB) == address(0)) {\r\n            IUniswapV2Factory(factory).createPair(tokenA, tokenB);\r\n        }\r\n        (uint reserveA, uint reserveB) = UniswapV2Library.getReserves(factory, tokenA, tokenB);\r\n        if (reserveA == 0 && reserveB == 0) {\r\n            (amountA, amountB) = (amountADesired, amountBDesired);\r\n        } else {\r\n            uint amountBOptimal = UniswapV2Library.quote(factory, amountADesired, tokenA, tokenB);\r\n            if (amountBOptimal <= amountBDesired) {\r\n                require(amountBOptimal >= amountBMin, 'UniswapV2Router: INSUFFICIENT_B_AMOUNT');\r\n                (amountA, amountB) = (amountADesired, amountBOptimal);\r\n            } else {\r\n                uint amountAOptimal = UniswapV2Library.quote(factory, amountBDesired, tokenB, tokenA);\r\n                assert(amountAOptimal <= amountADesired);\r\n                require(amountAOptimal >= amountAMin, 'UniswapV2Router: INSUFFICIENT_A_AMOUNT');\r\n                (amountA, amountB) = (amountAOptimal, amountBDesired);\r\n            }\r\n        }\r\n    }\r\n    function addLiquidity(\r\n        address tokenA,\r\n        address tokenB,\r\n        uint amountADesired,\r\n        uint amountBDesired,\r\n        uint amountAMin,\r\n        uint amountBMin,\r\n        address to,\r\n        uint deadline\r\n    ) external virtual override ensure(deadline) returns (uint amountA, uint amountB, uint liquidity) {\r\n        (amountA, amountB) = _addLiquidity(tokenA, tokenB, amountADesired, amountBDesired, amountAMin, amountBMin);\r\n        address pair = UniswapV2Library.pairFor(factory, tokenA, tokenB);\r\n        TransferHelper.safeTransferFrom(tokenA, msg.sender, pair, amountA);\r\n        TransferHelper.safeTransferFrom(tokenB, msg.sender, pair, amountB);\r\n        liquidity = IUniswapV2Pair(pair).mint(to);\r\n        emit AddLiquidity(tokenA, tokenB, amountA, amountB, pair);\r\n    }\r\n    function addLiquidityETH(\r\n        address token,\r\n        uint amountTokenDesired,\r\n        uint amountTokenMin,\r\n        uint amountETHMin,\r\n        address to,\r\n        uint deadline\r\n    ) external virtual override payable ensure(deadline) returns (uint amountToken, uint amountETH, uint liquidity) {\r\n        (amountToken, amountETH) = _addLiquidity(\r\n            token,\r\n            WETH,\r\n            amountTokenDesired,\r\n            msg.value,\r\n            amountTokenMin,\r\n            amountETHMin\r\n        );\r\n        address pair = UniswapV2Library.pairFor(factory, token, WETH);\r\n        TransferHelper.safeTransferFrom(token, msg.sender, pair, amountToken);\r\n        IWETH(WETH).deposit{value: amountETH}();\r\n        assert(IWETH(WETH).transfer(pair, amountETH));\r\n        liquidity = IUniswapV2Pair(pair).mint(to);\r\n        // refund dust eth, if any\r\n        if (msg.value > amountETH) TransferHelper.safeTransferETH(msg.sender, msg.value - amountETH);\r\n        emit AddLiquidity(token, WETH, amountToken, amountETH, pair);\r\n    }\r\n\r\n    // **** REMOVE LIQUIDITY ****\r\n    function removeLiquidity(\r\n        address tokenA,\r\n        address tokenB,\r\n        uint liquidity,\r\n        uint amountAMin,\r\n        uint amountBMin,\r\n        address to,\r\n        uint deadline\r\n    ) public virtual override ensure(deadline) returns (uint amountA, uint amountB) {\r\n        address pair = UniswapV2Library.pairFor(factory, tokenA, tokenB);\r\n        IUniswapV2Pair(pair).transferFrom(msg.sender, pair, liquidity); // send liquidity to pair\r\n        (uint amount0, uint amount1) = IUniswapV2Pair(pair).burn(to);\r\n        (address token0,) = UniswapV2Library.sortTokens(tokenA, tokenB);\r\n        (amountA, amountB) = tokenA == token0 ? (amount0, amount1) : (amount1, amount0);\r\n        require(amountA >= amountAMin, 'UniswapV2Router: INSUFFICIENT_A_AMOUNT');\r\n        require(amountB >= amountBMin, 'UniswapV2Router: INSUFFICIENT_B_AMOUNT');\r\n        emit RemoveLiquidity(tokenA, tokenB, amountA, amountB, pair);\r\n    }\r\n    function removeLiquidityETH(\r\n        address token,\r\n        uint liquidity,\r\n        uint amountTokenMin,\r\n        uint amountETHMin,\r\n        address to,\r\n        uint deadline\r\n    ) public virtual override ensure(deadline) returns (uint amountToken, uint amountETH) {\r\n        (amountToken, amountETH) = removeLiquidity(\r\n            token,\r\n            WETH,\r\n            liquidity,\r\n            amountTokenMin,\r\n            amountETHMin,\r\n            address(this),\r\n            deadline\r\n        );\r\n        TransferHelper.safeTransfer(token, to, amountToken);\r\n        IWETH(WETH).withdraw(amountETH);\r\n        TransferHelper.safeTransferETH(to, amountETH);\r\n    }\r\n    function removeLiquidityWithPermit(\r\n        address tokenA,\r\n        address tokenB,\r\n        uint liquidity,\r\n        uint amountAMin,\r\n        uint amountBMin,\r\n        address to,\r\n        uint deadline,\r\n        bool approveMax, uint8 v, bytes32 r, bytes32 s\r\n    ) external virtual override returns (uint amountA, uint amountB) {\r\n        address pair = UniswapV2Library.pairFor(factory, tokenA, tokenB);\r\n        uint value = approveMax ? uint(-1) : liquidity;\r\n        IUniswapV2Pair(pair).permit(msg.sender, address(this), value, deadline, v, r, s);\r\n        (amountA, amountB) = removeLiquidity(tokenA, tokenB, liquidity, amountAMin, amountBMin, to, deadline);\r\n    }\r\n    function removeLiquidityETHWithPermit(\r\n        address token,\r\n        uint liquidity,\r\n        uint amountTokenMin,\r\n        uint amountETHMin,\r\n        address to,\r\n        uint deadline,\r\n        bool approveMax, uint8 v, bytes32 r, bytes32 s\r\n    ) external virtual override returns (uint amountToken, uint amountETH) {\r\n        address pair = UniswapV2Library.pairFor(factory, token, WETH);\r\n        uint value = approveMax ? uint(-1) : liquidity;\r\n        IUniswapV2Pair(pair).permit(msg.sender, address(this), value, deadline, v, r, s);\r\n        (amountToken, amountETH) = removeLiquidityETH(token, liquidity, amountTokenMin, amountETHMin, to, deadline);\r\n    }\r\n\r\n    // **** REMOVE LIQUIDITY (supporting fee-on-transfer tokens) ****\r\n    function removeLiquidityETHSupportingFeeOnTransferTokens(\r\n        address token,\r\n        uint liquidity,\r\n        uint amountTokenMin,\r\n        uint amountETHMin,\r\n        address to,\r\n        uint deadline\r\n    ) public virtual override ensure(deadline) returns (uint amountETH) {\r\n        (, amountETH) = removeLiquidity(\r\n            token,\r\n            WETH,\r\n            liquidity,\r\n            amountTokenMin,\r\n            amountETHMin,\r\n            address(this),\r\n            deadline\r\n        );\r\n        TransferHelper.safeTransfer(token, to, IERC20(token).balanceOf(address(this)));\r\n        IWETH(WETH).withdraw(amountETH);\r\n        TransferHelper.safeTransferETH(to, amountETH);\r\n    }\r\n    function removeLiquidityETHWithPermitSupportingFeeOnTransferTokens(\r\n        address token,\r\n        uint liquidity,\r\n        uint amountTokenMin,\r\n        uint amountETHMin,\r\n        address to,\r\n        uint deadline,\r\n        bool approveMax, uint8 v, bytes32 r, bytes32 s\r\n    ) external virtual override returns (uint amountETH) {\r\n        address pair = UniswapV2Library.pairFor(factory, token, WETH);\r\n        uint value = approveMax ? uint(-1) : liquidity;\r\n        IUniswapV2Pair(pair).permit(msg.sender, address(this), value, deadline, v, r, s);\r\n        amountETH = removeLiquidityETHSupportingFeeOnTransferTokens(\r\n            token, liquidity, amountTokenMin, amountETHMin, to, deadline\r\n        );\r\n    }\r\n\r\n    // **** SWAP ****\r\n    // requires the initial amount to have already been sent to the first pair\r\n    function _swap(uint[] memory amounts, address[] memory path, address _to) internal virtual {\r\n        for (uint i; i < path.length - 1; i++) {\r\n            (address input, address output) = (path[i], path[i + 1]);\r\n            (address token0,) = UniswapV2Library.sortTokens(input, output);\r\n            uint amountOut = amounts[i + 1];\r\n            (uint amount0Out, uint amount1Out) = input == token0 ? (uint(0), amountOut) : (amountOut, uint(0));\r\n            address to = i < path.length - 2 ? UniswapV2Library.pairFor(factory, output, path[i + 2]) : _to;\r\n            IUniswapV2Pair(UniswapV2Library.pairFor(factory, input, output)).swap(\r\n                amount0Out, amount1Out, to, new bytes(0)\r\n            );\r\n        }\r\n    }\r\n    function swapExactTokensForTokens(\r\n        uint amountIn,\r\n        uint amountOutMin,\r\n        address[] calldata path,\r\n        address to,\r\n        uint deadline\r\n    ) external virtual override ensure(deadline) returns (uint[] memory amounts) {\r\n        amounts = UniswapV2Library.getAmountsOut(factory, amountIn, path);\r\n        require(amounts[amounts.length - 1] >= amountOutMin, 'UniswapV2Router: INSUFFICIENT_OUTPUT_AMOUNT');\r\n        TransferHelper.safeTransferFrom(\r\n            path[0], msg.sender, UniswapV2Library.pairFor(factory, path[0], path[1]), amounts[0]\r\n        );\r\n        _swap(amounts, path, to);\r\n    }\r\n    function swapTokensForExactTokens(\r\n        uint amountOut,\r\n        uint amountInMax,\r\n        address[] calldata path,\r\n        address to,\r\n        uint deadline\r\n    ) external virtual override ensure(deadline) returns (uint[] memory amounts) {\r\n        amounts = UniswapV2Library.getAmountsIn(factory, amountOut, path);\r\n        require(amounts[0] <= amountInMax, 'UniswapV2Router: EXCESSIVE_INPUT_AMOUNT');\r\n        TransferHelper.safeTransferFrom(\r\n            path[0], msg.sender, UniswapV2Library.pairFor(factory, path[0], path[1]), amounts[0]\r\n        );\r\n        _swap(amounts, path, to);\r\n    }\r\n    function swapExactETHForTokens(uint amountOutMin, address[] calldata path, address to, uint deadline)\r\n        external\r\n        virtual\r\n        override\r\n        payable\r\n        ensure(deadline)\r\n        returns (uint[] memory amounts)\r\n    {\r\n        require(path[0] == WETH, 'UniswapV2Router: INVALID_PATH');\r\n        amounts = UniswapV2Library.getAmountsOut(factory, msg.value, path);\r\n        require(amounts[amounts.length - 1] >= amountOutMin, 'UniswapV2Router: INSUFFICIENT_OUTPUT_AMOUNT');\r\n        IWETH(WETH).deposit{value: amounts[0]}();\r\n        assert(IWETH(WETH).transfer(UniswapV2Library.pairFor(factory, path[0], path[1]), amounts[0]));\r\n        _swap(amounts, path, to);\r\n    }\r\n    function swapTokensForExactETH(uint amountOut, uint amountInMax, address[] calldata path, address to, uint deadline)\r\n        external\r\n        virtual\r\n        override\r\n        ensure(deadline)\r\n        returns (uint[] memory amounts)\r\n    {\r\n        require(path[path.length - 1] == WETH, 'UniswapV2Router: INVALID_PATH');\r\n        amounts = UniswapV2Library.getAmountsIn(factory, amountOut, path);\r\n        require(amounts[0] <= amountInMax, 'UniswapV2Router: EXCESSIVE_INPUT_AMOUNT');\r\n        TransferHelper.safeTransferFrom(\r\n            path[0], msg.sender, UniswapV2Library.pairFor(factory, path[0], path[1]), amounts[0]\r\n        );\r\n        _swap(amounts, path, address(this));\r\n        IWETH(WETH).withdraw(amounts[amounts.length - 1]);\r\n        TransferHelper.safeTransferETH(to, amounts[amounts.length - 1]);\r\n    }\r\n    function swapExactTokensForETH(uint amountIn, uint amountOutMin, address[] calldata path, address to, uint deadline)\r\n        external\r\n        virtual\r\n        override\r\n        ensure(deadline)\r\n        returns (uint[] memory amounts)\r\n    {\r\n        require(path[path.length - 1] == WETH, 'UniswapV2Router: INVALID_PATH');\r\n        amounts = UniswapV2Library.getAmountsOut(factory, amountIn, path);\r\n        require(amounts[amounts.length - 1] >= amountOutMin, 'UniswapV2Router: INSUFFICIENT_OUTPUT_AMOUNT');\r\n        TransferHelper.safeTransferFrom(\r\n            path[0], msg.sender, UniswapV2Library.pairFor(factory, path[0], path[1]), amounts[0]\r\n        );\r\n        _swap(amounts, path, address(this));\r\n        IWETH(WETH).withdraw(amounts[amounts.length - 1]);\r\n        TransferHelper.safeTransferETH(to, amounts[amounts.length - 1]);\r\n    }\r\n    function swapETHForExactTokens(uint amountOut, address[] calldata path, address to, uint deadline)\r\n        external\r\n        virtual\r\n        override\r\n        payable\r\n        ensure(deadline)\r\n        returns (uint[] memory amounts)\r\n    {\r\n        require(path[0] == WETH, 'UniswapV2Router: INVALID_PATH');\r\n        amounts = UniswapV2Library.getAmountsIn(factory, amountOut, path);\r\n        require(amounts[0] <= msg.value, 'UniswapV2Router: EXCESSIVE_INPUT_AMOUNT');\r\n        IWETH(WETH).deposit{value: amounts[0]}();\r\n        assert(IWETH(WETH).transfer(UniswapV2Library.pairFor(factory, path[0], path[1]), amounts[0]));\r\n        _swap(amounts, path, to);\r\n        // refund dust eth, if any\r\n        if (msg.value > amounts[0]) TransferHelper.safeTransferETH(msg.sender, msg.value - amounts[0]);\r\n    }\r\n\r\n    // **** SWAP (supporting fee-on-transfer tokens) ****\r\n    // requires the initial amount to have already been sent to the first pair\r\n    function _swapSupportingFeeOnTransferTokens(address[] memory path, address _to) internal virtual {\r\n        for (uint i; i < path.length - 1; i++) {\r\n            (address input, address output) = (path[i], path[i + 1]);\r\n            (address token0,) = UniswapV2Library.sortTokens(input, output);\r\n            IUniswapV2Pair pair = IUniswapV2Pair(UniswapV2Library.pairFor(factory, input, output));\r\n            uint amountInput;\r\n            uint amountOutput;\r\n            { // scope to avoid stack too deep errors\r\n            (uint reserve0, uint reserve1,) = pair.getReserves();\r\n            (uint reserveInput, ) = input == token0 ? (reserve0, reserve1) : (reserve1, reserve0);\r\n            amountInput = IERC20(input).balanceOf(address(pair)).sub(reserveInput);\r\n            amountOutput = UniswapV2Library.getAmountOut(factory, amountInput, input, output);\r\n            }\r\n            (uint amount0Out, uint amount1Out) = input == token0 ? (uint(0), amountOutput) : (amountOutput, uint(0));\r\n            address to = i < path.length - 2 ? UniswapV2Library.pairFor(factory, output, path[i + 2]) : _to;\r\n            pair.swap(amount0Out, amount1Out, to, new bytes(0));\r\n        }\r\n    }\r\n    function swapExactTokensForTokensSupportingFeeOnTransferTokens(\r\n        uint amountIn,\r\n        uint amountOutMin,\r\n        address[] calldata path,\r\n        address to,\r\n        uint deadline\r\n    ) external virtual override ensure(deadline) {\r\n        TransferHelper.safeTransferFrom(\r\n            path[0], msg.sender, UniswapV2Library.pairFor(factory, path[0], path[1]), amountIn\r\n        );\r\n        uint balanceBefore = IERC20(path[path.length - 1]).balanceOf(to);\r\n        _swapSupportingFeeOnTransferTokens(path, to);\r\n        require(\r\n            IERC20(path[path.length - 1]).balanceOf(to).sub(balanceBefore) >= amountOutMin,\r\n            'UniswapV2Router: INSUFFICIENT_OUTPUT_AMOUNT'\r\n        );\r\n    }\r\n    function swapExactETHForTokensSupportingFeeOnTransferTokens(\r\n        uint amountOutMin,\r\n        address[] calldata path,\r\n        address to,\r\n        uint deadline\r\n    )\r\n        external\r\n        virtual\r\n        override\r\n        payable\r\n        ensure(deadline)\r\n    {\r\n        require(path[0] == WETH, 'UniswapV2Router: INVALID_PATH');\r\n        uint amountIn = msg.value;\r\n        IWETH(WETH).deposit{value: amountIn}();\r\n        assert(IWETH(WETH).transfer(UniswapV2Library.pairFor(factory, path[0], path[1]), amountIn));\r\n        uint balanceBefore = IERC20(path[path.length - 1]).balanceOf(to);\r\n        _swapSupportingFeeOnTransferTokens(path, to);\r\n        require(\r\n            IERC20(path[path.length - 1]).balanceOf(to).sub(balanceBefore) >= amountOutMin,\r\n            'UniswapV2Router: INSUFFICIENT_OUTPUT_AMOUNT'\r\n        );\r\n    }\r\n    function swapExactTokensForETHSupportingFeeOnTransferTokens(\r\n        uint amountIn,\r\n        uint amountOutMin,\r\n        address[] calldata path,\r\n        address to,\r\n        uint deadline\r\n    )\r\n        external\r\n        virtual\r\n        override\r\n        ensure(deadline)\r\n    {\r\n        require(path[path.length - 1] == WETH, 'UniswapV2Router: INVALID_PATH');\r\n        TransferHelper.safeTransferFrom(\r\n            path[0], msg.sender, UniswapV2Library.pairFor(factory, path[0], path[1]), amountIn\r\n        );\r\n        _swapSupportingFeeOnTransferTokens(path, address(this));\r\n        uint amountOut = IERC20(WETH).balanceOf(address(this));\r\n        require(amountOut >= amountOutMin, 'UniswapV2Router: INSUFFICIENT_OUTPUT_AMOUNT');\r\n        IWETH(WETH).withdraw(amountOut);\r\n        TransferHelper.safeTransferETH(to, amountOut);\r\n    }\r\n\r\n    // **** LIBRARY FUNCTIONS ****\r\n    function quote(address _factory, uint amountA, address tokenA, address tokenB) public view virtual override returns (uint amountB) {\r\n        return UniswapV2Library.quote(_factory, amountA, tokenA, tokenB);\r\n    }\r\n\r\n    function getAmountOut(address _factory, uint amountIn, address tokenIn, address tokenOut)\r\n        public\r\n        view\r\n        virtual\r\n        override\r\n        returns (uint amountOut)\r\n    {\r\n        return UniswapV2Library.getAmountOut(_factory, amountIn, tokenIn, tokenOut);\r\n    }\r\n\r\n    function getAmountIn(address _factory, uint amountOut, address tokenIn, address tokenOut)\r\n        public\r\n        view\r\n        virtual\r\n        override\r\n        returns (uint amountIn)\r\n    {\r\n        return UniswapV2Library.getAmountIn(_factory, amountOut, tokenIn, tokenOut);\r\n    }\r\n\r\n    function getAmountsOut(address _factory, uint amountIn, address[] memory path)\r\n        public\r\n        view\r\n        virtual\r\n        override\r\n        returns (uint[] memory amounts)\r\n    {\r\n        return UniswapV2Library.getAmountsOut(_factory, amountIn, path);\r\n    }\r\n\r\n    function getAmountsIn(address _factory, uint amountOut, address[] memory path)\r\n        public\r\n        view\r\n        virtual\r\n        override\r\n        returns (uint[] memory amounts)\r\n    {\r\n        return UniswapV2Library.getAmountsIn(_factory, amountOut, path);\r\n    }\r\n}\r\n",
  "sourcePath": "C:\\Users\\haeung\\Documents\\codes\\lvswap\\LVswap-deployer\\LVswap-periphery\\contracts\\UniswapV2Router02.sol",
  "compiler": {
    "name": "solc",
    "version": "0.6.6+commit.6c089d02.Emscripten.clang"
  },
  "schemaVersion": "3.4.16",
  "updatedAt": "2023-09-25T00:44:06.715Z",
  "networkType": "ethereum",
  "devdoc": {
    "methods": {}
  },
  "userdoc": {
    "methods": {}
  }
}